{
  "contractName": "Bet",
  "abi": [
    {
      "inputs": [
        {
          "internalType": "string",
          "name": "name",
          "type": "string"
        }
      ],
      "stateMutability": "nonpayable",
      "type": "constructor"
    },
    {
      "anonymous": false,
      "inputs": [
        {
          "indexed": true,
          "internalType": "uint256",
          "name": "game_id",
          "type": "uint256"
        },
        {
          "indexed": true,
          "internalType": "address",
          "name": "user",
          "type": "address"
        },
        {
          "indexed": false,
          "internalType": "bool",
          "name": "over",
          "type": "bool"
        },
        {
          "indexed": false,
          "internalType": "uint256",
          "name": "amount",
          "type": "uint256"
        },
        {
          "indexed": false,
          "internalType": "int32",
          "name": "line",
          "type": "int32"
        }
      ],
      "name": "BetPlaced",
      "type": "event"
    },
    {
      "anonymous": false,
      "inputs": [
        {
          "indexed": true,
          "internalType": "uint256",
          "name": "game_id",
          "type": "uint256"
        },
        {
          "indexed": false,
          "internalType": "address",
          "name": "bidder",
          "type": "address"
        },
        {
          "indexed": false,
          "internalType": "uint256",
          "name": "amount",
          "type": "uint256"
        },
        {
          "indexed": false,
          "internalType": "bool",
          "name": "over",
          "type": "bool"
        },
        {
          "indexed": false,
          "internalType": "int32",
          "name": "line",
          "type": "int32"
        }
      ],
      "name": "BidPlaced",
      "type": "event"
    },
    {
      "anonymous": false,
      "inputs": [
        {
          "indexed": true,
          "internalType": "uint256",
          "name": "id",
          "type": "uint256"
        },
        {
          "indexed": true,
          "internalType": "address",
          "name": "creator",
          "type": "address"
        },
        {
          "indexed": false,
          "internalType": "string",
          "name": "home",
          "type": "string"
        },
        {
          "indexed": false,
          "internalType": "string",
          "name": "away",
          "type": "string"
        },
        {
          "indexed": true,
          "internalType": "uint16",
          "name": "category",
          "type": "uint16"
        },
        {
          "indexed": false,
          "internalType": "uint64",
          "name": "locktime",
          "type": "uint64"
        }
      ],
      "name": "GameCreated",
      "type": "event"
    },
    {
      "anonymous": false,
      "inputs": [
        {
          "indexed": true,
          "internalType": "uint256",
          "name": "game_id",
          "type": "uint256"
        },
        {
          "indexed": false,
          "internalType": "int256",
          "name": "homeScore",
          "type": "int256"
        },
        {
          "indexed": false,
          "internalType": "int256",
          "name": "awayScore",
          "type": "int256"
        },
        {
          "indexed": false,
          "internalType": "uint256",
          "name": "timestamp",
          "type": "uint256"
        }
      ],
      "name": "GameScored",
      "type": "event"
    },
    {
      "anonymous": false,
      "inputs": [
        {
          "indexed": true,
          "internalType": "address",
          "name": "user",
          "type": "address"
        },
        {
          "indexed": false,
          "internalType": "uint256",
          "name": "amount",
          "type": "uint256"
        },
        {
          "indexed": false,
          "internalType": "uint256",
          "name": "timestamp",
          "type": "uint256"
        }
      ],
      "name": "Withdrawal",
      "type": "event"
    },
    {
      "inputs": [
        {
          "internalType": "address",
          "name": "",
          "type": "address"
        }
      ],
      "name": "balances",
      "outputs": [
        {
          "internalType": "uint256",
          "name": "",
          "type": "uint256"
        }
      ],
      "stateMutability": "view",
      "type": "function"
    },
    {
      "inputs": [],
      "name": "nameContract",
      "outputs": [
        {
          "internalType": "string",
          "name": "",
          "type": "string"
        }
      ],
      "stateMutability": "view",
      "type": "function"
    },
    {
      "inputs": [],
      "name": "owner",
      "outputs": [
        {
          "internalType": "address",
          "name": "",
          "type": "address"
        }
      ],
      "stateMutability": "view",
      "type": "function"
    },
    {
      "inputs": [
        {
          "internalType": "string",
          "name": "home",
          "type": "string"
        },
        {
          "internalType": "string",
          "name": "away",
          "type": "string"
        },
        {
          "internalType": "uint16",
          "name": "category",
          "type": "uint16"
        },
        {
          "internalType": "uint64",
          "name": "locktime",
          "type": "uint64"
        }
      ],
      "name": "createGame",
      "outputs": [
        {
          "internalType": "int256",
          "name": "",
          "type": "int256"
        }
      ],
      "stateMutability": "nonpayable",
      "type": "function"
    },
    {
      "inputs": [],
      "name": "bet",
      "outputs": [],
      "stateMutability": "nonpayable",
      "type": "function"
    }
  ],
  "bytecode": "0x608060405260006004553480156200001657600080fd5b506040516200129e3803806200129e83398181016040528101906200003c91906200017e565b8060009080519060200190620000549291906200005c565b5050620002f4565b8280546200006a9062000260565b90600052602060002090601f0160209004810192826200008e5760008555620000da565b82601f10620000a957805160ff1916838001178555620000da565b82800160010185558215620000da579182015b82811115620000d9578251825591602001919060010190620000bc565b5b509050620000e99190620000ed565b5090565b5b8082111562000108576000816000905550600101620000ee565b5090565b6000620001236200011d84620001f7565b620001c3565b9050828152602081018484840111156200013c57600080fd5b620001498482856200022a565b509392505050565b600082601f8301126200016357600080fd5b8151620001758482602086016200010c565b91505092915050565b6000602082840312156200019157600080fd5b600082015167ffffffffffffffff811115620001ac57600080fd5b620001ba8482850162000151565b91505092915050565b6000604051905081810181811067ffffffffffffffff82111715620001ed57620001ec620002c5565b5b8060405250919050565b600067ffffffffffffffff821115620002155762000214620002c5565b5b601f19601f8301169050602081019050919050565b60005b838110156200024a5780820151818401526020810190506200022d565b838111156200025a576000848401525b50505050565b600060028204905060018216806200027957607f821691505b6020821081141562000290576200028f62000296565b5b50919050565b7f4e487b7100000000000000000000000000000000000000000000000000000000600052602260045260246000fd5b7f4e487b7100000000000000000000000000000000000000000000000000000000600052604160045260246000fd5b610f9a80620003046000396000f3fe608060405234801561001057600080fd5b50600436106100575760003560e01c806311610c251461005c57806327e235e3146100665780638da5cb5b14610096578063b71e513b146100b4578063f0eb62cf146100e4575b600080fd5b610064610102565b005b610080600480360381019061007b9190610a6c565b610145565b60405161008d9190610c3a565b60405180910390f35b61009e61015d565b6040516100ab9190610b9d565b60405180910390f35b6100ce60048036038101906100c99190610a95565b610183565b6040516100db9190610bb8565b60405180910390f35b6100ec610937565b6040516100f99190610bd3565b60405180910390f35b33600160006101000a81548173ffffffffffffffffffffffffffffffffffffffff021916908373ffffffffffffffffffffffffffffffffffffffff160217905550565b60036020528060005260406000206000915090505481565b600160009054906101000a900473ffffffffffffffffffffffffffffffffffffffff1681565b60008060045490506004600081548092919061019e90610e38565b9190505550600060028054905090506001816101ba9190610cd2565b9050600060026001836101cd9190610d28565b81548110610204577f4e487b7100000000000000000000000000000000000000000000000000000000600052603260045260246000fd5b90600052602060002090600b020160405180610120016040529081600082015481526020016001820160009054906101000a900473ffffffffffffffffffffffffffffffffffffffff1673ffffffffffffffffffffffffffffffffffffffff1673ffffffffffffffffffffffffffffffffffffffff16815260200160028201805461028e90610e06565b80601f01602080910402602001604051908101604052809291908181526020018280546102ba90610e06565b80156103075780601f106102dc57610100808354040283529160200191610307565b820191906000526020600020905b8154815290600101906020018083116102ea57829003601f168201915b5050505050815260200160038201805461032090610e06565b80601f016020809104026020016040519081016040528092919081815260200182805461034c90610e06565b80156103995780601f1061036e57610100808354040283529160200191610399565b820191906000526020600020905b81548152906001019060200180831161037c57829003601f168201915b505050505081526020016004820160009054906101000a900461ffff1661ffff1661ffff1681526020016004820160029054906101000a900467ffffffffffffffff1667ffffffffffffffff1667ffffffffffffffff16815260200160048201600a9054906101000a900460ff16600381111561043f577f4e487b7100000000000000000000000000000000000000000000000000000000600052602160045260246000fd5b6003811115610477577f4e487b7100000000000000000000000000000000000000000000000000000000600052602160045260246000fd5b81526020016005820160405180606001604052908160008201805480602002602001604051908101604052809291908181526020016000905b8282101561057a57838290600052602060002090600302016040518060800160405290816000820160009054906101000a900473ffffffffffffffffffffffffffffffffffffffff1673ffffffffffffffffffffffffffffffffffffffff1673ffffffffffffffffffffffffffffffffffffffff168152602001600182015481526020016002820160009054906101000a900460ff161515151581526020016002820160019054906101000a900460030b60030b60030b81525050815260200190600101906104b0565b50505050815260200160018201805480602002602001604051908101604052809291908181526020016000905b8282101561067157838290600052602060002090600302016040518060800160405290816000820160009054906101000a900473ffffffffffffffffffffffffffffffffffffffff1673ffffffffffffffffffffffffffffffffffffffff1673ffffffffffffffffffffffffffffffffffffffff168152602001600182015481526020016002820160009054906101000a900460ff161515151581526020016002820160019054906101000a900460030b60030b60030b81525050815260200190600101906105a7565b50505050815260200160028201805480602002602001604051908101604052809291908181526020016000905b8282101561076857838290600052602060002090600302016040518060800160405290816000820160009054906101000a900473ffffffffffffffffffffffffffffffffffffffff1673ffffffffffffffffffffffffffffffffffffffff1673ffffffffffffffffffffffffffffffffffffffff168152602001600182015481526020016002820160009054906101000a900460ff161515151581526020016002820160019054906101000a900460030b60030b60030b815250508152602001906001019061069e565b505050508152505081526020016008820160405180606001604052908160008201548152602001600182015481526020016002820154815250508152505090508281600001818152505033816020019073ffffffffffffffffffffffffffffffffffffffff16908173ffffffffffffffffffffffffffffffffffffffff168152505087816040018190525086816060018190525085816080019061ffff16908161ffff1681525050848160a0019067ffffffffffffffff16908167ffffffffffffffff168152505060008160c00190600381111561086f577f4e487b7100000000000000000000000000000000000000000000000000000000600052602160045260246000fd5b908160038111156108a9577f4e487b7100000000000000000000000000000000000000000000000000000000600052602160045260246000fd5b815250508561ffff16816020015173ffffffffffffffffffffffffffffffffffffffff16847f415346576e7a4340e1529a06686ea702e50cc1a1dad47151072784fa499736e88b8b8a60405161090193929190610bf5565b60405180910390a47fffffffffffffffffffffffffffffffffffffffffffffffffffffffffffffffff9350505050949350505050565b6000805461094490610e06565b80601f016020809104026020016040519081016040528092919081815260200182805461097090610e06565b80156109bd5780601f10610992576101008083540402835291602001916109bd565b820191906000526020600020905b8154815290600101906020018083116109a057829003601f168201915b505050505081565b60006109d86109d384610c86565b610c55565b9050828152602081018484840111156109f057600080fd5b6109fb848285610dc4565b509392505050565b600081359050610a1281610f1f565b92915050565b600082601f830112610a2957600080fd5b8135610a398482602086016109c5565b91505092915050565b600081359050610a5181610f36565b92915050565b600081359050610a6681610f4d565b92915050565b600060208284031215610a7e57600080fd5b6000610a8c84828501610a03565b91505092915050565b60008060008060808587031215610aab57600080fd5b600085013567ffffffffffffffff811115610ac557600080fd5b610ad187828801610a18565b945050602085013567ffffffffffffffff811115610aee57600080fd5b610afa87828801610a18565b9350506040610b0b87828801610a42565b9250506060610b1c87828801610a57565b91505092959194509250565b610b3181610d5c565b82525050565b610b4081610d6e565b82525050565b6000610b5182610cb6565b610b5b8185610cc1565b9350610b6b818560208601610dd3565b610b7481610f0e565b840191505092915050565b610b8881610da6565b82525050565b610b9781610db0565b82525050565b6000602082019050610bb26000830184610b28565b92915050565b6000602082019050610bcd6000830184610b37565b92915050565b60006020820190508181036000830152610bed8184610b46565b905092915050565b60006060820190508181036000830152610c0f8186610b46565b90508181036020830152610c238185610b46565b9050610c326040830184610b8e565b949350505050565b6000602082019050610c4f6000830184610b7f565b92915050565b6000604051905081810181811067ffffffffffffffff82111715610c7c57610c7b610edf565b5b8060405250919050565b600067ffffffffffffffff821115610ca157610ca0610edf565b5b601f19601f8301169050602081019050919050565b600081519050919050565b600082825260208201905092915050565b6000610cdd82610da6565b9150610ce883610da6565b9250827fffffffffffffffffffffffffffffffffffffffffffffffffffffffffffffffff03821115610d1d57610d1c610e81565b5b828201905092915050565b6000610d3382610da6565b9150610d3e83610da6565b925082821015610d5157610d50610e81565b5b828203905092915050565b6000610d6782610d86565b9050919050565b6000819050919050565b600061ffff82169050919050565b600073ffffffffffffffffffffffffffffffffffffffff82169050919050565b6000819050919050565b600067ffffffffffffffff82169050919050565b82818337600083830152505050565b60005b83811015610df1578082015181840152602081019050610dd6565b83811115610e00576000848401525b50505050565b60006002820490506001821680610e1e57607f821691505b60208210811415610e3257610e31610eb0565b5b50919050565b6000610e4382610da6565b91507fffffffffffffffffffffffffffffffffffffffffffffffffffffffffffffffff821415610e7657610e75610e81565b5b600182019050919050565b7f4e487b7100000000000000000000000000000000000000000000000000000000600052601160045260246000fd5b7f4e487b7100000000000000000000000000000000000000000000000000000000600052602260045260246000fd5b7f4e487b7100000000000000000000000000000000000000000000000000000000600052604160045260246000fd5b6000601f19601f8301169050919050565b610f2881610d5c565b8114610f3357600080fd5b50565b610f3f81610d78565b8114610f4a57600080fd5b50565b610f5681610db0565b8114610f6157600080fd5b5056fea2646970667358221220f4fd79079d11e08a2e2602c1d4690598049d545571cbfbaf646c54728a11e24d64736f6c63430008000033",
  "immutableReferences": {},
  "source": "// SPDX-License-Identifier: MIT\npragma solidity 0.8.0;\n\ncontract Bet {\n    string public nameContract;\n    address public owner;\n    Game[] games;\n    mapping(address => uint256) public balances;\n    uint256 counter = 0;\n\n    constructor(string memory name) public {\n        nameContract = name;\n    }\n\n    struct Game {\n        uint256 id;\n        address creator;\n        string home;\n        string away;\n        uint16 category;\n        uint64 locktime;\n        GameStatus status;\n        Book book;\n        GameResult result;\n    }\n\n    struct GameResult {\n        int256 home;\n        int256 away;\n        uint256 timestamp;\n    }\n\n    struct Book {\n        Bid[] overBids;\n        Bid[] underBids;\n        Bid[] bets;\n    }\n\n    struct Bid {\n        address bidder;\n        uint256 amount;\n        bool over;\n        int32 line;\n    }\n\n    struct BetStruct {\n        address over;\n        address under;\n        int32 line;\n        BetStatus status;\n    }\n\n    enum GameStatus {Open, Locked, Scored, Verified}\n    enum BetStatus {Open, Paid}\n\n    event GameCreated(\n        uint256 indexed id,\n        address indexed creator,\n        string home,\n        string away,\n        uint16 indexed category,\n        uint64 locktime\n    );\n    event BidPlaced(\n        uint256 indexed game_id,\n        address bidder,\n        uint256 amount,\n        bool over,\n        int32 line\n    );\n    event BetPlaced(\n        uint256 indexed game_id,\n        address indexed user,\n        bool over,\n        uint256 amount,\n        int32 line\n    );\n    event GameScored(\n        uint256 indexed game_id,\n        int256 homeScore,\n        int256 awayScore,\n        uint256 timestamp\n    );\n    event Withdrawal(address indexed user, uint256 amount, uint256 timestamp);\n\n    function createGame(\n        string memory home,\n        string memory away,\n        uint16 category,\n        uint64 locktime\n    ) public returns (int256) {\n        uint256 id = counter;\n        counter++;\n        uint256 gamesLength = games.length;\n\n        gamesLength += 1;\n        Game memory game = games[gamesLength - 1];\n\n        game.id = id;\n        game.creator = msg.sender;\n        game.home = home;\n        game.away = away;\n        game.category = category;\n\n        game.locktime = locktime;\n        game.status = GameStatus.Open;\n\n        emit GameCreated(id, game.creator, home, away, category, locktime);\n        return -1;\n    }\n\n    function bet() public {\n        owner = msg.sender;\n    }\n\n    // function kill() public {\n    //     require(msg.sender == owner, \"Only owner can kill the contract\");\n    //     selfdestruct(owner);\n    // }\n}\n",
  "sourcePath": "/Users/manav/Documents/ManavShah/code/truffle/notBet/contracts/Bet.sol",
  "compiler": {
    "name": "solc",
    "version": "0.8.0+commit.c7dfd78e.Emscripten.clang"
  },
  "schemaVersion": "3.2.3",
  "updatedAt": "2021-06-07T05:21:58.143Z",
  "devdoc": {
    "kind": "dev",
    "methods": {},
    "version": 1
  },
  "userdoc": {
    "kind": "user",
    "methods": {},
    "version": 1
  }
}